:100000000C9462000C948A000C948A000C948A0070
:100010000C948A000C948A000C948A000C946D0550
:100020000C948A000C948A000C948A000C94B104FD
:100030000C948A000C948A000C948A000C948A0018
:100040000C9467040C948A000C9435040C940F04EF
:100050000C948A000C948A000C948A000C948A00F8
:100060000C948A000C948A00000000080002010031
:100070000003040700000000000000000000000072
:10008000240027002A000000000023002600290089
:1000900000000000250028002B00040404040404D0
:1000A0000404020202020202030303030303010227
:1000B00004081020408001020408102001020408F6
:1000C0001020AA0511241FBECFEFD8E0DEBFCDBFA0
:1000D00011E0A0E0B1E0E4E3F4E102C005900D928C
:1000E000AA32B107D9F722E0AAE2B1E001C01D921D
:1000F000A132B207E1F710E0C2E6D0E004C02197D8
:10010000FE010E94120AC136D107C9F70E94AB0650
:100110000C94180A0C940000CF92DF92EF92FF9299
:10012000DC01A03282E0B807D4F5A53BB10514F09C
:10013000A4EBB0E04091050228E830E0241B31092F
:1001400047FD3395220F331F220F331F6901330FF1
:10015000EE08FF084091060228E532E0241B310931
:1001600047FD3395220F331F220F331F032E000C40
:10017000440B550B2C193D094E095F09B7FF02C00E
:10018000B0E0A0E00E94CD0924EB30E040E050E078
:100190000E94A309C20ED31EE41EF51ED601E091F3
:1001A0000402EC3080F52091050288E890E0821B83
:1001B000910927FD9395880F991F880F991FA817FC
:1001C000B90784F02091060288E592E0821B91092C
:1001D00027FD9395880F991F880F991FA817B907B6
:1001E0000CF4CD010297880F991F4FB7F8942E2F6A
:1001F00030E0F901EE0FFF1FE20FF31FE352FE4F55
:10020000928381834FBFFF90EF90DF90CF9008954E
:10021000AF92BF92CF92DF92EF92FF920F931F9314
:10022000CF93DF936C017B018B01040F151FEB0152
:100230005E01AE18BF08C017D10759F06991D60109
:10024000ED91FC910190F081E02DC6010995892B7B
:1002500079F7C501DF91CF911F910F91FF90EF903A
:10026000DF90CF90BF90AF900895FC01538D448DE7
:10027000252F30E0842F90E0821B930B541710F051
:10028000CF96089501970895FC01918D828D98175E
:1002900061F0A28DAE0FBF2FB11D5D968C91928D36
:1002A0009F5F9F73928F90E008958FEF9FEF089567
:1002B000FC01918D828D981731F0828DE80FF11D30
:1002C000858D90E008958FEF9FEF0895FC01918D4B
:1002D000228D892F90E0805C9F4F821B91098F7344
:1002E0009927089580E491E00E94660121E0892B1E
:1002F00009F420E0822F089580E090E0892B29F016
:100300000E94720181110C9400000895FC01A48DDB
:10031000A80FB92FB11DA35ABF4F2C91848D90E027
:1003200001968F739927848FA689B7892C93A0890A
:10033000B1898C91837080648C93938D848D981394
:1003400006C00288F389E02D80818F7D8083089527
:10035000EF92FF920F931F93CF93DF93EC0181E015
:10036000888F9B8D8C8D98131AC0E889F9898081BC
:1003700085FF15C09FB7F894EE89FF896083E889EF
:10038000F98980818370806480839FBF81E090E0E1
:10039000DF91CF911F910F91FF90EF900895F62E6E
:1003A0000B8D10E00F5F1F4F0F731127E02E8C8D08
:1003B0008E110CC00FB607FCFACFE889F98980814D
:1003C00085FFF5CFCE010E948601F1CFEB8DEC0FBA
:1003D000FD2FF11DE35AFF4FF0829FB7F8940B8F6A
:1003E000EA89FB8980818062CFCFCF93DF93EC01D4
:1003F000888D8823B9F0AA89BB89E889F9898C910D
:1004000085FD03C0808186FD0DC00FB607FCF7CFC8
:100410008C9185FFF2CF808185FFEDCFCE010E94C8
:100420008601E9CFDF91CF910895833081F028F4E0
:10043000813099F08230A9F008958730A9F0883092
:10044000C9F08430B1F4809180008F7D03C0809129
:1004500080008F7780938000089584B58F7784BD66
:10046000089584B58F7DFBCF8091B0008F77809306
:10047000B00008958091B0008F7DF9CFCF93DF93C6
:10048000282F30E0F901E859FF4F8491F901E25536
:10049000FF4FD491F901E656FF4FC491CC23A1F050
:1004A00081110E941502EC2FF0E0EE0FFF1FEA57BA
:1004B000FF4FA591B491EC91ED2381E090E009F418
:1004C00080E0DF91CF91089580E090E0FACF1F9314
:1004D000CF93DF93282F30E0F901E859FF4F849143
:1004E000F901E255FF4FD491F901E656FF4FC4914F
:1004F000CC23A9F0162F81110E941502EC2FF0E0F9
:10050000EE0FFF1FE057FF4FA591B4918FB7F894FE
:10051000EC91111108C0D095DE23DC938FBFDF91E1
:10052000CF911F910895DE2BF8CFCF93DF9360E03A
:100530008CE00E94670260E088E00E946702C7E0EA
:10054000D0E060E084E00E9467028091020290E0C7
:100550000C2E02C0959587950A94E2F761E080FF22
:1005600060E088E00E94670261E084E00E94670228
:10057000219738F761E08CE0DF91CF910C9467020E
:10058000CF93DF9390E0FC01E255FF4F2491865614
:100590009F4FFC0184918823D1F090E0880F991F30
:1005A000FC01E458FF4FA591B491FC01E057FF4FC7
:1005B000C591D49161110EC09FB7F8948C91E22F30
:1005C000E0958E238C932881E223E8839FBFDF91FF
:1005D000CF9108958FB7F894EC91E22BEC938FBFF5
:1005E000F6CF3FB7F8948091340190913501A091F6
:1005F0003601B091370126B5A89B05C02F3F19F0F1
:100600000196A11DB11D3FBFBA2FA92F982F882792
:10061000BC01CD01620F711D811D911D42E0660F6D
:10062000771F881F991F4A95D1F708958F929F923F
:10063000AF92BF92CF92DF92EF92FF924B015C019B
:100640000E94F1026B017C010E94F1026C197D098C
:100650008E099F09683E734081059105A8F321E04A
:10066000821A9108A108B10888EEC80E83E0D81E4E
:10067000E11CF11C81149104A104B10429F7FF903D
:10068000EF90DF90CF90BF90AF909F908F900895A4
:10069000FC018081823061F018F4813031F00895DE
:1006A000833049F0843049F008956093B300089591
:1006B0006093B400089567BD089568BD0895FC0176
:1006C0008081823069F028F423E092E0813051F09B
:1006D0000895833011F126E090E0843019F00895F8
:1006E00024E091E06230E1F0643079F1613009F0AA
:1006F0003FC041E050E0BA0101C0660F9A95EAF7A9
:1007000080910202862B01C0440F2A95EAF740959A
:100710004823409302020C94950227E095E0E2CF33
:1007200041E050E0BA0102C0660F771F9A95E2F7E8
:10073000CB01809590910202892301C0440F2A9534
:10074000EAF7842B80930202E6CF41E050E0FA0101
:1007500002C0EE0FFF1F9A95E2F7CF0101C0440FD0
:100760002A95EAF7842B8095909102028923EACF9B
:100770000895FC0101900020E9F73197AF01481B73
:10078000590BBC0180E491E00C940801CF92DF92F8
:10079000EF92FF920F931F93CF93DF93CDB7DEB706
:1007A000A1970FB6F894DEBF0FBECDBF9C0150E0FD
:1007B00040E019A28E010F5D1F4F8AE0C82ED12C98
:1007C000E12CF12CCA01B901A70196010E94D509BB
:1007D000605DF80162938F012115310541055105D6
:1007E00089F73097C9F0CF010E94B9038C0182E1EB
:1007F00091E00E94B903800F911FA1960FB6F89463
:10080000DEBF0FBECDBFDF91CF911F910F91FF9043
:10081000EF90DF90CF90089510E000E0E8CF1F92B6
:100820000F920FB60F9211242F933F934F935F9324
:100830006F937F938F939F93AF93BF93EF93FF93A8
:1008400080E491E00E948601FF91EF91BF91AF910A
:100850009F918F917F916F915F914F913F912F91D8
:100860000F900FBE0F901F9018951F920F920FB60A
:100870000F9211242F938F939F93EF93FF93E09107
:100880005001F09151018081E0915601F0915701A2
:1008900082FD1BC09081809159018F5F8F732091E1
:1008A0005A01821741F0E0915901F0E0E05CFE4FFF
:1008B000958F80935901FF91EF919F918F912F9187
:1008C0000F900FBE0F901F9018958081F4CF1F924C
:1008D0000F920FB60F9211242F933F938F939F93F4
:1008E000AF93BF938091300190913101A09132017B
:1008F000B091330130912F0123E0230F2D3758F5AC
:100900000196A11DB11D20932F018093300190937A
:100910003101A0933201B093330180913401909161
:100920003501A0913601B09137010196A11DB11D8D
:100930008093340190933501A0933601B093370131
:10094000BF91AF919F918F913F912F910F900FBECB
:100950000F901F90189526E8230F0296A11DB11D38
:10096000D2CF1F920F920FB60F9211242F933F9365
:100970004F935F936F937F938F939F93AF93BF93A7
:10098000CF93DF93EF93FF9380912E01C0910102EB
:10099000D0E087FF24C010928500109284008091DF
:1009A0002E018F5F80932E0180912E01082E000C66
:1009B000990B8C179D0724F480912E018C30C4F183
:1009C0008091840090918500049680349C4908F4BD
:1009D0007AC08091840090918500049676C08091C1
:1009E0002E01082E000C990B8C179D07C4F6E09180
:1009F0002E018E2FEE0F990BFC01EE0FFF1FE80F5B
:100A0000F91FE352FE4F808186FFC9CFE0912E018E
:100A10008E2FEE0F990BFC01EE0FFF1FE80FF91F51
:100A2000E352FE4F808160E08F730E946702B7CF70
:100A30002091840030918500E0912E018E2FEE0FE1
:100A4000990BFC01EE0FFF1FE80FF91FE352FE4F59
:100A500081819281820F931F9093890080938800F7
:100A6000E0912E018E2FEE0F990BFC01EE0FFF1F70
:100A7000E80FF91FE352FE4F808186FF11C0E0911D
:100A80002E018E2FEE0F990BFC01EE0FFF1FE80FCA
:100A9000F91FE352FE4F808161E08F730E9467026D
:100AA000FF91EF91DF91CF91BF91AF919F918F9186
:100AB0007F916F915F914F913F912F910F900FBE5A
:100AC0000F901F90189580E49CE990938900809383
:100AD00088008FEF80932E01E3CF1F920F920FB605
:100AE0000F9211242F933F934F935F936F937F93B4
:100AF0008F939F93AF93BF93EF93FF93F0E0E0E06A
:100B00000995FF91EF91BF91AF919F918F917F9147
:100B10006F915F914F913F912F910F900FBE0F906A
:100B20001F90189561E08CE00E94C00261E087E0B0
:100B30000E94C00261E088E00E94C00261E084E09F
:100B40000E94C002109202020E94950260E087E0BB
:100B50000C946702CF93DF931092430110924201ED
:100B600088EE93E0A0E0B0E08093440190934501CB
:100B7000A0934601B093470184E091E09093410136
:100B80008093400185EC90E090934D0180934C015F
:100B900084EC90E090934F0180934E0180EC90E0C4
:100BA000909351018093500181EC90E09093530118
:100BB0008093520182EC90E0909355018093540110
:100BC00086EC90E090935701809356011092590162
:100BD00010925A0110925B0110925C011092030274
:100BE000EDEBF0E0E491E0931302ECEBF0E0E49144
:100BF000E093140289EA90E0FC012491E22FF0E0F6
:100C0000EE0FFF1FE057FF4F2591349130931602EE
:100C100020931502E8EAF0E0E491F0E0EE0FFF1F08
:100C2000EA57FF4F25913491309318022093170211
:100C3000FC018491E82FF0E0EE0FFF1FE458FF4F16
:100C40008591949190931A028093190281EC9CE211
:100C500090931C0280931B0281E080930D02C4E0FC
:100C6000C0930E020E94920580910202837F8093BE
:100C700002020E9495028091B00083688093B000C8
:100C8000C093B1001092B30061E08BE00E94C002FB
:100C900082E080930B02C0930C020E949205809127
:100CA00002028D7E809302020E9495028091B00024
:100CB00083628093B000C093B1001092B40061E0F1
:100CC00083E00E94C002D3E0D0930902D0930A02CD
:100CD0000E949205809102028F75809302020E9409
:100CE000950284B5836884BD17BC61E086E00E94EC
:100CF000C002C0930702D09308020E94920580911F
:100D000002028E7B809302020E94950284B5836268
:100D100084BD18BC61E085E00E94C00280910102A0
:100D20008C30A8F491E0980F909301028093040214
:100D300090E0FC01EE0FFF1FE80FF91FE352FE4F9A
:100D400088EB9BE092838183DF91CF9108958FEFB1
:100D500080930402F9CF789484B5826084BD84B511
:100D6000816084BD85B5826085BD85B5816085BDA6
:100D700080916E00816080936E001092810080915E
:100D800081008260809381008091810081608093E6
:100D90008100809180008160809380008091B1000B
:100DA00084608093B1008091B00081608093B00036
:100DB00080917A00846080937A0080917A008260CA
:100DC00080937A0080917A00816080937A0080918C
:100DD0007A00806880937A001092C100E0915001FF
:100DE000F091510182E08083E0914C01F0914D013E
:100DF0001082E0914E01F0914F018FEC80831092B0
:100E00005801E0915401F091550186E08083E09112
:100E10005201F0915301808180618083E091520101
:100E2000F0915301808188608083E0915201F091BC
:100E30005301808180688083E0915201F0915301D9
:100E400080818F7D8083809104028C3008F051C0B6
:100E500061E08AE00E94C00280910402282F30E005
:100E6000F901EE0FFF1FE20FF31FE352FE4F9081D7
:100E7000907C9A60908310920502109206022CE0FA
:100E8000622F0E94060A829FB001112430E020E008
:100E9000AB01420F531FFA01EE0FFF1FE40FF51FC6
:100EA000E352FE4F908196FD16C02F5F3F4F2C30CE
:100EB000310571F781110FC01092800082E080939C
:100EC00081001092850010928400B19A80916F0089
:100ED000826080936F00E09104028E2F90E0FC010D
:100EE000EE0FFF1FE80FF91FE352FE4F8081806471
:100EF00080838AE590E09093390180933801C09116
:100F00003801D0913901C53BD1057CF4CE010E9456
:100F10008C006FE070E080E090E00E941603219664
:100F2000D0933901C0933801EACF84EB90E09093DD
:100F3000390180933801C0913801D0913901D7FD32
:100F40000FC0CE010E948C006FE070E080E090E066
:100F50000E9416032197D0933901C0933801EBCF3B
:100F60001092390110923801C0913801D0913901A5
:100F7000CB35D1057CF4CE010E948C006FE070E08F
:100F800080E090E00E9416032196D0933901C0932F
:100F90003801EACF60E080E10E94C00260E081E1B8
:100FA0000E94C002CBE0D0E003E210E089E3882E8B
:100FB000912CA12CB12C90E0E92E90E0F92E62E367
:100FC00070E080E090E00E941603E0911902F09139
:100FD0001A02808190911302892B8083E09115027F
:100FE000F09116029081809113028095892380836D
:100FF000CE010197F1F7E0911502F0911602808180
:1010000090911302892B8083C8010197F1F7E09139
:101010001502F09116029081809113028095892328
:101020008083E0911902F0911A029081809113025D
:10103000809589238083E0911702F09118028081C6
:1010400090911402892309F46DC090E080E0BC0106
:1010500090E080E0A50194010E94D50930933F0102
:1010600020933E0185E191E00E94B90380913E0109
:1010700090913F010E94C60380E10E943E0290933E
:101080003D0180933C0181E10E943E0290933B012F
:1010900080933A018EE191E00E94B90380913C0176
:1010A00090913D010E94C60384E291E00E94B90341
:1010B00080913A0190913B010E94C60380913E01CC
:1010C00090913F019C01225031092D30310508F0EB
:1010D0009BC062E88DE092E00E94480361E08DE0F1
:1010E00092E00E945F0362E88BE092E00E94480376
:1010F00061E08BE092E00E945F0362E889E092E0A9
:101100000E94480361E089E092E00E945F0362E888
:1011100087E092E00E94480361E087E092E00E944D
:101120005F03B0C00E94F102AB01BC0180911B02C1
:1011300090911C02B0E0A0E08855994EAF4FBF4F90
:10114000840F951FA61FB71F80931D0290931E0248
:10115000A0931F02B0932002E0911702F0911802B1
:10116000808190911402892381F40E94F1024090C1
:101170001D0250901E0260901F02709020024616C1
:1011800057066806790640F760CF0E94F102209169
:101190001B0230911C02620F731F811D911D609311
:1011A0001D0270931E0280931F0290932002E09113
:1011B0001702F0911802808190911402892381F026
:1011C0000E94F10240901D0250901E0260901F028A
:1011D00070902002461657066806790640F735CF0C
:1011E0000E94F10220911B0230911C02A90145507E
:1011F000510920911D0230911E02FA01E21BF30BEE
:10120000CF01860F971F23CF20913C0130913D01E4
:101210002115310509F042C020913A0130913B017E
:101220002130310509F068C066E98DE092E00E9446
:10123000480361E08DE092E00E945F0366E98BE085
:1012400092E00E94480361E08BE092E00E945F031D
:1012500066E989E092E00E94480362E089E092E05A
:101260000E945F0366E987E092E00E94480362E023
:1012700087E092E00E945F0366E970E080E090E022
:101280000E941603E114F10409F499CE0E94720140
:10129000882309F494CE0E94000091CE21303105BC
:1012A00059F520913A0130913B01232B29F566E94C
:1012B0008DE092E00E94480362E08DE092E00E949F
:1012C0005F0366E98BE092E00E94480362E08BE0F6
:1012D00092E00E945F0366E989E092E00E94480381
:1012E00061E089E092E00E945F0366E987E092E0B6
:1012F0000E94480361E0BCCF409720F260E08DE09F
:1013000092E00E94480364E08DE092E00E945F0357
:1013100060E08BE092E00E94480364E08BE092E0A2
:101320000E945F0360E089E092E00E94480364E06D
:1013300089E092E00E945F0360E087E092E00E9413
:10134000480364E0EACE052E97FB1EF400940E9449
:10135000BA0957FD07D00E94D50907FC03D04EF407
:101360000C94BA0950954095309521953F4F4F4FB9
:101370005F4F089590958095709561957F4F8F4F41
:101380009F4F08950E94F709A59F900DB49F900D5F
:10139000A49F800D911D11240895B7FF0C94C209DC
:1013A0000E94C209821B930B0895A1E21A2EAA1B68
:1013B000BB1BFD010DC0AA1FBB1FEE1FFF1FA21705
:1013C000B307E407F50720F0A21BB30BE40BF50B02
:1013D000661F771F881F991F1A9469F7609570958B
:1013E000809590959B01AC01BD01CF010895A29F0E
:1013F000B001B39FC001A39F700D811D1124911DE9
:10140000B29F700D811D1124911D0895991B79E0E3
:1014100004C0991F961708F0961B881F7A95C9F784
:1014200080950895EE0FFF1F0590F491E02D09942B
:04143000F894FFCF5E
:1014340000000000A80108013501F501660144011E
:1014440058010D0A0064697374616E636500524942
:0A145400474854004C454654000080
:00000001FF
